:100000000C9417010C945E010C945E010C945E013B
:100010000C945E010C945E010C945E010C945E01E4
:100020000C945E010C945E010C94B31C0C94871D1F
:100030000C94E2130C945E010C945E010C945E012E
:100040000C945E010C945E010C945E010C945E01B4
:100050000C945E010C942D140C945E010C945E01C2
:100060000C945E010C945E010C945E010C945E0194
:100070000C945E010C945E010C945E010C945E0184
:100080000C945E010C945E010C945E010C945E0174
:100090000C945E010C945E010C945E010C945E0164
:1000A0000C945E010C945E010C945E011E001F0016
:1000B00020002100220023000E034A007500730077
:1000C000740069006E000000160371006D006B0083
:1000D0006200750069006C00640065007200000039
:1000E0000403090409023B00020100A0FA0904000C
:1000F0000001030101000921110100012240000754
:1001000005810308000A0904010001030000000939
:10011000211101000122BC000705820320000A1200
:1001200001100100000008EDFE6060010001020006
:100130000105010902A10185020901A100050919B2
:1001400001290515002501950575018102950175A7
:100150000381010501093009311581257F9502755B
:1001600008810609381581257F95017508810605E6
:100170000C0A38021581257F950175088106C0C0DB
:1001800005010980A101850319012AB7001501267F
:10019000B700950175108100C0050C0901A101850A
:1001A0000419012AA002150126A0029501751081EB
:1001B00000C005010906A1018505050719E029E729
:1001C000150025019508750181020507190029EF21
:1001D0001500250195F07501810205081901290511
:1001E000950575019102950175039101C0050109FD
:1001F00006A101050719E029E715002501950875F5
:100200000181029501750881010507190029FF1573
:100210000026FF00950675088100050819012905CB
:10022000950575019102950175039101C000112496
:100230001FBECFEFDAE0DEBFCDBF04B603FE27C09E
:1002400080913F0290914002A0914102B091420200
:100250008730904BA740B04BD1F410923F021092E0
:100260004002109241021092420214BE84B7877F6E
:1002700084BF0FB6F894A895809160008861809340
:100280006000109260000FBEE0E0F8E3099511E015
:10029000A0E0B1E0E6EAFFE302C005900D92AC37C2
:1002A000B107D9F722E0ACE7B1E001C01D92AF334E
:1002B000B207E1F70E94F5190C94A91F0C940000F5
:1002C00081E0089581E008950C94620108950C94F2
:1002D00066011F93CF93DF9300D000D00F92CDB76C
:1002E000DEB749835A836B8330918C0189819A816F
:1002F00031111DC06623B9F02223A9F00E94D81045
:10030000182F682F89819A810E94831069817A81D0
:10031000812F0F900F900F900F900F90DF91CF9142
:100320001F910C9419020E94B010182FEFCF0E9459
:10033000D81069817A81EDCFFC01262F408151814F
:100340006281738184810C946901CF93DF93EC0106
:1003500060E00E949C01BE01DF91CF910C94670187
:100360000E941C12811102C00E94CA120C94250422
:100370000C94280408950E94ED0B0E94BA012FEFFF
:1003800084E39CE0215080409040E1F700C00000F1
:100390000C9451140F931F93CF93DF93EC0161E002
:1003A0000E949C018C01BE010E946401882329F1F6
:1003B000BE01C8010E9481058823F9F0BE01C80171
:1003C0000E94D3058823C9F0BE01C8010E94F60629
:1003D000882399F08A81882339F001158CE5180764
:1003E00051F00F3D1C4579F0CE01DF91CF911F9167
:1003F0000F910C9460010E94BB0180E0DF91CF91CE
:100400001F910F9108950E94CA12F7CF08950C947E
:10041000060281E008950C940902CF93C82F0E9430
:1004200007028C2FCF910C940B0290E080E008958E
:100430000895972F70E023E0929F600D711D1124A5
:10044000FB0196E0899FE00DF11D1124EE0FFF1FC7
:10045000E455FF4F859194910895FC01EE0FFF1F25
:10046000E854FF4F859194910895CF93DF930E94B4
:1004700019020E944A03EC01811520E5920708F059
:1004800042C0811530E4930708F0BDC0883E910555
:1004900028F5803E910508F09DC0883A910588F4C2
:1004A000853A910508F08FC08130910509F492C01A
:1004B000009709F48FC0049708F08CC0D0E0C0E02A
:1004C00089C08F3B910508F489C0805C9109C03CCC
:1004D000D105A0F30E942D02EC017CC08115904251
:1004E00050F4C11581E0D80708F074C0C03FD105B1
:1004F00028F3D0656FC0C11590E3D90708F079C023
:10050000CE019F70E7CF811525E5920758F581153B
:1005100034E5930708F0A6C0811542E5940750F42E
:10052000C11581E5D80708F471C0DC2FCC27C16F55
:10053000D06A50C0982F969596959E0123703327C8
:10054000C115D34508F07FC0C1E0D0E002C0CC0F98
:10055000DD1F2A95E2F720E2929FC0011124C82BEB
:10056000D92B6FC0C11589E5D807A8F4C11598E546
:10057000D90708F07CC0C11526E5D20708F09ECF48
:100580008C2F0E94E103C82FD0E0DC2FCC27CC2792
:10059000DF71D0621FC0C1153AE5D30708F46CC003
:1005A000CE0190568115904208F088CF8D2F8F7123
:1005B0000E94E10390E0982F882788279F719C0173
:1005C0002C2BE901E6CFC55AD0E0CD5BDE4FC881C8
:1005D000D0E0D064CE01DF91CF910895C85AD0E029
:1005E000CC0FDD1FCB5EDE4F0990D881C02DD464C7
:1005F000F1CFCE019927D3FF03C0EC01D86CEACF2D
:10060000EC01D06CE7CFDF70D06AE4CFCE01E4E03C
:1006100096958795EA95E1F783702C2F2695269578
:10062000237090E2299F90011124382B8C2F837026
:10063000C1E0D0E002C0CC0FDD1F8A95E2F7C22BEB
:10064000D32BDC68C7CFC1E0D0E002C0CC0FDD1FE8
:100650002A95E2F730E2939FC0011124C82BD92BD1
:10066000DA68B8CFD82FCC27C46FD06AB3CFDC2FCD
:10067000CC27C06FD06AAECF8C2F8F700E94E10361
:1006800034E0D695C7953A95E1F7CF709C2FEC01F1
:10069000D069A0CF82389105B1F1B0F481339105D2
:1006A00009F475C048F48932910509F469C08A32A9
:1006B000910509F473C008958533910509F459C073
:1006C0008933910501F10895833E9105A9F138F42C
:1006D000803E9105F9F0823E910549F10895863EEC
:1006E0009105A9F1873E9105C9F1843E910519F55F
:1006F0002091310221FF1FC08091300284FD14C07F
:1007000087EE90E00895209130022370A1F080EEF2
:1007100090E008952091300220FD47C030913102D1
:1007200030FF09C024FF44C090E080E004C0209165
:10073000300222FDF7CF08952091300222FD3BC008
:100740003091310230FDE3CF24FFF5CFEDCF209182
:10075000300223FFF0CF24FDE7CFD2CF209130022B
:1007600023FD2CC03091310231FFEECF84EE90E0BA
:1007700008952091300225FFDECF89E290E00895B0
:100780002091300225FFD7CF85E390E00895209196
:10079000300226FFD0CF8AE290E008952091300207
:1007A00026FFC9CF81E390E0089589E390E00895A2
:1007B00083EE90E0089582EE90E0089586EE90E05A
:1007C00008959091300292FF06C0282F287128309A
:1007D000F9F4877F846093FF06C0282F28712831A1
:1007E000F1F4877E84612091310220FF06C0382F0A
:1007F00038713830D9F4877F816021FF06C0282FF7
:1008000028712831D1F4877E816194FD877E089517
:10081000282F24712430F9F68B7F8860DCCF282FB5
:100820002471243101F78B7E8861DDCF382F31713F
:10083000313019F78E7F8860E0CF282F2171213168
:1008400021F78E7E8861E1CF08950C9424040895E9
:100850000C942704E82FF0E0E65DFD4F80810895B9
:10086000089580EA8A95F1F70895F894E82FE295C3
:10087000EF70F0E031A1282F2F7081E090E001C0EF
:10088000880F2A95EAF7982F9095932391A392A128
:10089000892B82A37894089586E60E94350484E922
:1008A0000E94350484E30E94350486EC0E943504DE
:1008B00087E90E943504A8E2B2E01C92EAE2F2E085
:1008C000108211961C92118282E00E94DE040C9428
:1008D000B001CF92DF92EF92FF920F931F93CF93CD
:1008E000DF93C9E4D1E008E212E0D12CEE24E394D6
:1008F000F12C8991F894E82FE295EF70F0E021A1B6
:100900008F70A70102C0440F551F8A95E2F7CA01F4
:10091000922F982B91A392A18095892382A37894FA
:100920000E943104E6E4F1E030E020E0C12C419186
:10093000A42FA295AF70B0E090968C9190E04F708C
:1009400002C0959587954A95E2F780FD33C08E2DBC
:10095000022E01C0880F0A94EAF7C82A2F5F3F4F82
:100960002330310521F7FE01319780810E94350443
:10097000F8018081C81601F1C08281E0D82A0F5F9A
:100980001F4FF1E0CB34DF0709F0B3CF2D2D42E04C
:100990006AE272E088E292E00E94DF040E94B801FD
:1009A0008D2DDF91CF911F910F91FF90EF90DF90F0
:1009B000CF90089580E0D1CF80E0E0CF0895FF92FE
:1009C0000F931F93CF93DF93F82E092F162FD72F56
:1009D000C42F222349F081E080937E010E941214EB
:1009E00090937D0180937C0180917E018823A1F00A
:1009F00080917C0190917D010E941E14069760F009
:100A0000EF2DF02FA12FBD2FCE0FDF2FD11DEC1713
:100A1000FD0741F410927E01DF91CF911F910F915C
:100A2000FF90089581918D93F2CF0F931F93CF93F1
:100A3000DF93C42FD22FFC0182818823C9F0409319
:100A400081010E9412149093800180937F0180E2C3
:100A50008C0F883008F050C0C77081E001C0880F4B
:100A6000CA95EAF7DF91CF911F910F910C9471090C
:100A700010918101141335C080917F019091800104
:100A80000E941E14883C910560F5C0E2CD0F1D1731
:100A9000B9F080E2810F883040F4177081E001C026
:100AA000880F1A95EAF70E947809C83048F481E067
:100AB0009D2F977001C0880F9A95EAF70E947109DF
:100AC000802F0E945E09C830B8F4D77081E001C061
:100AD000880FDA95EAF7DF91CF911F910F910C946F
:100AE000780980E28C0F883038F4C77081E001C04B
:100AF000880FCA95EAF7EFCFDF91CF911F910F9141
:100B000008950F939C01CB01243F4CE5340759F124
:100B1000A8F4293DFCE53F0701F12A3D4CE53407E7
:100B2000D1F1283D3C4591F406E221EE41EE68ED1D
:100B30007CE50E94150580E00F910895263FFCE5B5
:100B40003F07E9F0B0F0273F3C45F9F0FC01828116
:100B5000882339F110928101EFCF07E225EE45EEAF
:100B600069ED7CE5E6CF06E221EE40EE64EF7CE540
:100B7000E0CF07E225EE44EE65EF7CE5DACF06E252
:100B800021EE42EE66EF7CE5D4CF07E225EE46EE9D
:100B900067EF7CE5CECF08E221E045EE6AED7CE52B
:100BA000C8CF81E0C9CFCF93DF93EC01FB018281F5
:100BB000882309F419C1C230FCE5DF07C0F1C63152
:100BC0009CE5D90730F09E012B5F3C45293031056B
:100BD00070F50E9439129093310280933002C03137
:100BE000ECE5DE0709F4CFC008F05BC0C8308CE547
:100BF000D80709F4B6C088F5C430ECE5DE0709F47F
:100C0000A8C0C0F4C2308CE5D80709F49CC080911C
:100C100030028260C330DC4509F498C08091300214
:100C2000909131020E9447120E94ED0B80E0DF910B
:100C3000CF910895809130028061C630ECE5DE07E7
:100C400009F484C0809130028860C730DC4508F424
:100C50007DC080913002806279C0CC308CE5D807AD
:100C600009F489C070F4809130028C60CA30ECE5E0
:100C7000DE0709F46BC008F478C0809130028E7FE3
:100C800065C0CE308CE5D80709F479C08091300278
:100C90008B7FCF30DC4508F459C0809130028F7EC5
:100CA00055C0CC3FECE5DE0709F457C030F5C33141
:100CB0008CE5D80709F46FC078F4C131ECE5DE07A4
:100CC00009F465C0C231DC4509F0A8CF0E94ED0BE4
:100CD000809130028F773AC0C5318CE5D80709F48E
:100CE00062C008F476C0809131028160CB3FDC4560
:100CF00009F094CF8093310291CFC115FDE5DF0754
:100D000009F44DC088F4809131028D7FCE3F9CE57F
:100D1000D90781F3809131028E7FCF3FDC4550F3BC
:100D2000809131028360E6CFC230FDE5DF0709F430
:100D300059C008F444C080E0C330DD4509F06ECFEF
:100D40000E94CC126BCF8091300281608093300280
:100D500065CF809130028460F9CF8091310282604A
:100D6000C9CF809130028064F1CF0E94ED0B809159
:100D700030028068EBCF809130028D7FE7CF809189
:100D80003002877FE3CF809130028F7DDFCF80916B
:100D900030028F7BDBCF80913002837FD7CF809171
:100DA00031028C7FA7CF8091300282FB992790F986
:100DB00021E0922790FB82F990FB83F9C7CF8091C5
:100DC0003102982F909591708E7F892B90FB81F93D
:100DD00091CF0E94ED0B90913002892F97FB87F9FC
:100DE0008058B4CF81E0ACCF81E021CFCF93DF93A7
:100DF000EB0186319C4511F50E946D119A81992372
:100E000099F08A7A91E009F490E09093820181113F
:100E100009C089E20E9448110E94B91180E0DF9167
:100E2000CF91089585E3F6CF80918201811104C0AE
:100E300089E20E944F11F0CF85E3FBCF81E0EFCF35
:100E400090938801809387010895E0918701F09144
:100E50008801309721F00190F081E02D099480E025
:100E60000895E0918701F0918801309799F02091E1
:100E70001401222359F02091300227FF07C0DC0122
:100E80002C9111962C93119725E02C930280F381DD
:100E9000E02D09940895E0918701F0918801309741
:100EA00039F022E0DC012C930480F581E02D0994D7
:100EB000089520918501309186012817390771F036
:100EC0009093860180938501E0918701F0918801DC
:100ED000309721F00680F781E02D09940895209144
:100EE0008301309184012817390771F090938401B0
:100EF00080938301E0918701F0918801309721F080
:100F00000084F185E02D0994089585B7806885BF38
:100F100085B7806885BF0895089508950C948C075F
:100F200008950C9490070E9485070E948D070C94E9
:100F30008E0781E008950C949907089508950E9402
:100F400009140E944C040E94B8140C949107BF929B
:100F5000CF92DF92EF92FF920F931F93CF93DF9385
:100F6000CDB7DEB72A970FB6F894DEBF0FBECDBF60
:100F70000E949D070E949E070E9469040E949B0791
:100F80003AE8C32E31E0D32E10E000E081111CC0FE
:100F90008FEF89838A831B820E9412148160782FCD
:100FA0009D838C8349815A816B818D810E94470882
:100FB00041C080E026C081E092E0F92E22C00130DD
:100FC000110531F301E010E0B02E802F0E942A04B9
:100FD000E82EF601F1906F01F81689F38091F70180
:100FE00081FD0E9430048F2D8E25F82FF170FF2E89
:100FF00080FDDFCF81FDDFCF82FFE1CF82E024E003
:10100000F22E8E83BF82EF2081E009F480E0888792
:101010000E9412148160782F9A8789874E815F81A0
:1010200068858A850E944708F801E657FE4F80814F
:10103000F826F0820E9466170E9425079091890188
:101040008917A9F00E942507809389012A960FB677
:10105000F894DEBF0FBECDBFDF91CF911F910F91EE
:10106000FF90EF90DF90CF90BF900C940D022A96E6
:101070000FB6F894DEBF0FBECDBFDF91CF911F91A9
:101080000F91FF90EF90DF90CF90BF900895CF9396
:10109000DF93CDB7DEB72B970FB6F894DEBF0FBE48
:1010A000CDBF4F83588769877A878B871E821D82C1
:1010B00085E0FE013796DE01119601900D928A952A
:1010C000E1F749815A816B817C818D819E812B96CC
:1010D0000FB6F894DEBF0FBECDBFDF91CF910C9459
:1010E000630EFC01808191810C941A11CF93C82F5B
:1010F000882309F48BC08238C1F40E94250781FD42
:1011000085C089E30E9448110E94B9112FEF81EE3A
:1011100094E0215080409040E1F700C0000089E356
:101120000E944F11CF910C94B9118338A1F40E9401
:10113000250780FD6BC083E50E9448110E94B9110C
:101140002FEF81EE94E0215080409040E1F700C005
:10115000000083E5E5CF8438A1F40E94250782FDD5
:1011600055C087E40E9448110E94B9112FEF81EE0B
:1011700094E0215080409040E1F700C0000087E4F7
:10118000CFCF8CEF8C0F813A90F46C2F80910001BF
:10119000909101010E94E512882329F08C2F0E9472
:1011A0004F110E94B9118C2F0E944811BBCF80E2D1
:1011B0008C0F883048F4C77081E001C0880FCA9551
:1011C000EAF70E947011AECFEBE5EC0FE33040F48C
:1011D000F0E0E758FE4F808190E0CF910C945907E2
:1011E000E8E5EC0FE73150F4F0E0EE0FFF1FE55BB0
:1011F000FE4F80819181CF910C946F07C03F30F0FA
:101200008C2F0E946016CF910C944B17CF910895AC
:10121000882309F452C0823871F40E94250781FFA7
:101220004CC089E30E9448110E94B91189E30E94D1
:101230004F110C94B911833859F40E94250780FF8F
:101240003CC083E50E9448110E94B91183E5EFCFAD
:10125000843859F40E94250782FF2FC087E40E943A
:1012600048110E94B91187E4E2CF9CEF980F913AA0
:10127000F0F290E2980F983050F4877091E001C03E
:10128000990F8A95EAF7892F0E947611D2CF9BE5B4
:10129000980F933020F490E080E00C94590798E583
:1012A000980F973120F490E080E00C946F07803F16
:1012B00020F00E94C8160C944B170895CF93C82FA6
:1012C0000E947608C93349F42FEF87EE93E021504E
:1012D00080409040E1F700C000008C2FCF910C942B
:1012E0000809882321F00E9470110C94B911089507
:1012F000882321F00E9476110C94B9110895BF92B1
:10130000CF92DF92EF92FF920F931F93CF93DF93D1
:101310006C01D62FC72FFC01058102950F70128139
:1013200011110E948D110E946611E82E882391F000
:101330001123D1F08C2F807F803421F080E28D0F3B
:10134000883090F082E00E9404120E94661191E0C1
:10135000E82EE926BC2EB2949FE0B922EB2DF0E0F6
:10136000E555F04E0C944D1FE12CF4CF0C2F0F706F
:10137000C07F11F00295007F1123A9F0002359F0DE
:1013800080E28D0F883010F0D11109C0802F0E94AB
:1013900070110E94B9118D2F0E94760814C0802F01
:1013A0000E948011F6CF8D2F0E940809002359F06A
:1013B00080E28D0F883010F0D1112CC0802F0E9458
:1013C00076110E94B9112B2D2850330B2430310592
:1013D00020F40E9425070E940D02EE2009F49EC110
:1013E0000E94621180FD9AC1F60112820E945C1176
:1013F0000E94E70FC6010E94AF0B0E945C11DF91B3
:10140000CF911F910F91FF90EF90DF90CF90BF9001
:101410000C940810802F0E948611D3CFFC2FFF70F0
:10142000FF2EC07FC03219F0F29480EFF822DD2346
:1014300069F0D13049F1112391F1002351F1F60106
:10144000858180FFA8CF8F70858323C0112381F011
:10145000011106C00E94A0118F290E947109B3CF0B
:101460000130C1F70E94A0118F290E94A611ABCFB5
:10147000011106C00E94AF118F2D0E947809A3CFE1
:10148000013009F4A0CFF6CF112329F0063008F07F
:101490009ACF8F2DE2CF053008F095CFEDCF002306
:1014A00059F3D93349F4FFEF27EE33E0F1502040F0
:1014B0003040E1F700C000008D2F0E94080983CF63
:1014C0008C2F86958695837069F0813009F07BCFEB
:1014D0008D2F9C2F9370111102C090E080E00E942C
:1014E0006F0771CF8D2F9C2F9370111102C090E068
:1014F00080E00E94590767CF8D2F112329F00E94A9
:1015000060160E944B175FCF0E94C816FACF8C2F2F
:10151000837009F041C0111156CF4D2F4295469569
:101520004770440F440F0D2F0F7010E030E020E0A3
:10153000042E04C0000F111F221F331F0A94D2F77C
:1015400060E070E0CB01D4FF0FC06FE070E080E09E
:1015500090E004C0660F771F881F991F4A95D2F745
:101560006095709580959095C695C695C370602BD3
:10157000712B822B932BC23049F058F4C13019F0F3
:101580000E94990F20CF0E94870F1DCF0E94AB0FA2
:101590001ACF0E94850F17CF8695112311F08C2F3B
:1015A0008170882309F40FCF4D2F429546954770DF
:1015B000440F440F0D2F0F7010E030E020E0042E98
:1015C00004C0000F111F221F331F0A94D2F760E0DE
:1015D00070E0CB01D4FF0FC06FE070E080E090E0DE
:1015E00004C0660F771F881F991F4A95D2F7609530
:1015F000709580959095C695C695C370602B712B9C
:10160000822B932BC23049F058F4C13019F00E945C
:101610005E10D9CE0E944C10D6CE0E947010D3CE50
:101620000E94C10FD0CECF70112329F08C2F0E94C1
:10163000E70F8D2F12CF8D2F0E9478098C2F0E94DB
:101640000810C1CED23F89F160F4D03FC9F0D13F3C
:1016500029F1112309F442C001119DCE8C2F8F7105
:1016600021C0D33F39F1D43FA1F7112369F1CF71E4
:101670008C2F0E94E70F63E08C2F0E94EF11A3CE06
:10168000112341F0053008F09ECE8C2F8F710E94FF
:101690002B1099CE063008F096CEF7CF8C2F8F7195
:1016A000112369F20E94E70F8ECE8C2F8F711123C8
:1016B000C9F3C5CF112329F08C2F8F710E94D20F4F
:1016C00082CE0E94CD0F7FCE81E00E9404120230B4
:1016D00008F479CE82E00E94041275CE002359F0FE
:1016E000D93309F0E9CE8FEF97EEE3E081509040D7
:1016F000E040E1F7DFCE8C2F8F71A1CF4C2F4F70E0
:101700006D2FC6010E9415020E94FD0E5CCE4C2F6B
:101710004F706D2FC6010E94180255CEDF91CF91F8
:101720001F910F91FF90EF90DF90CF90BF900895A1
:101730000F931F93CF93DF93EC01688179818A81A6
:101740000E9424118C010E9482100E94840FB80113
:10175000CE01DF91CF911F910F910C947F09CF9310
:10176000DF93EC018B819C81892B29F08881998101
:1017700089238F3F59F4DF91CF910895CE010E94C4
:10178000980BCE01DF91CF910C94A501CE010E9460
:10179000CA018111F3CF0E946611882361F38A8107
:1017A000882349F382E0DF91CF910C9404120E94C8
:1017B0008D110E949D110E94B9110E9472180E9401
:1017C0004B1790E080E00E94590790E080E00C9475
:1017D0006F070E9456110C94D70B0E947D110C9438
:1017E000E90BE92FE295EF70E250EE3070F4F0E093
:1017F000E554F04E0C944D1F803F19F020F4883EC4
:1018000020F481E00895843FE1F380E00895883E6C
:10181000C0F3813FD1F7F5CF93FB882780F9089576
:101820000E941A110C94F10BCF93DF9300D000D0DB
:101830000F92CDB7DEB70F900F900F900F900F90D3
:10184000DF91CF910895CF93DF9300D000D000D0E7
:10185000CDB7DEB726960FB6F894DEBF0FBECDBF6C
:10186000DF91CF9108951F93CF93DF93C0918D01A6
:1018700016E080918E018C1304C0DF91CF911F91EF
:101880000895D0E01C9FF0011D9FF00D1124E15739
:10189000FE4F4081518162817381848195810E94D4
:1018A000230C2196C770E5CF4091BF015091C00134
:1018B0006091C1017091C2018091C3019091C401F6
:1018C0000C94230C1F93CF93DF938091C401807FEE
:1018D000A9F48091C101882389F080918D01C09184
:1018E0008E016091BF017091C001A091C201B091C1
:1018F000C301D62FD72316E0C81304C0DF91CF91C0
:101900001F91089590E0109711F0DF3F19F40196B0
:101910008770F2CF189F9001199F300D1124F901A3
:10192000E157FE4F41814713F2CF40814613EFCF7D
:1019300042814111ECCF438154814A1B5B0B483CEF
:10194000510528F78091C4018F7080618093C40194
:10195000F901EC56FE4F80818F70806180838FEBA0
:1019600091E00E94AF0BDF91CF911F910C94330C4B
:10197000AF92BF92CF92DF92EF92FF920F931F939D
:10198000CF93DF93CDB7DEB761970FB6F894DEBF84
:101990000FBECDBF8C0185E0F801DE011D960190E0
:1019A0000D928A95E1F7F80140815181E2808FEB39
:1019B000C82E81E0D82E6091C2017091C3016115DB
:1019C000710509F461C19091BF012091C001892F77
:1019D00082238F3F09F458C1A380B480F090C101E5
:1019E000F501E61BF70BFF2009F4FCC08091C40150
:1019F000382F307FE83CF10508F0B2C0311179C0D2
:101A0000FE2C251323C0941321C0E1101FC08F703A
:101A100080618093C4010E94540CC6010E94AF0BE8
:101A20008091C401F80185838F2D61960FB6F894DB
:101A3000DEBF0FBECDBFDF91CF911F910F91FF9001
:101A4000EF90DF90CF90BF90AF900895AB2829F032
:101A5000842F85238F3F09F033C180E0F82FF17088
:101A6000DF2E80FF3CC080918D0120918E0136E0F9
:101A7000821315C04D875E878D859E850E941A1141
:101A8000292F22952F702230F0F0243018F59F7006
:101A9000F1F0F8019581907FD1F4D12C1EC090E037
:101AA000389FF001399FF00D1124E157FE4F6181FD
:101AB000651306C06081641303C062816E110FC09C
:101AC00001968770D5CF9F7011F0882331F3805E27
:101AD000883018F3C8010E94AF0BFD2CA5CFEE2073
:101AE00009F4A2CF8091C40181608093C401F12CDC
:101AF0009BCF251306C0941304C0F801EE2009F40F
:101B00008DC04D875E878D859E850E94100C882331
:101B100019F1EE2009F18091C401803270F020911A
:101B2000BF013091C00138872F831986BB86AA86F2
:101B30008C87CE0107960E94AF0B86E0F801AFEBD1
:101B4000B1E001900D928A95E1F70E94620C0E942B
:101B5000540CFF24F39468CFC8010E94AF0BF9CF57
:101B6000311113C07A2DB98AA88A6E2D89890E94F5
:101B7000140C8FEB91E00E94AF0B86E0F6011192FE
:101B80008A95E9F70E94540CB2CF25130FC0941325
:101B90000DC0E1100BC0F8018583C8010E94AF0B96
:101BA00086E0F60111928A95E9F73ECF4D875E8770
:101BB0008D859E850E94100C882371F2EE2061F2C3
:101BC0008091C401803208F4B8CF2091BF013091D8
:101BD000C0013A8329831B82BD82AC828E83CE01F1
:101BE0000196A9CFE83CF10508F041C0FE2CEE209B
:101BF00009F4B2CF25132AC0941328C08091C401E0
:101C000080FD1BC0982F907FC1F0F8018583903F25
:101C100031F0982F907F905F8F70892B8583C8015A
:101C20000E94AF0B86E0F801AFEBB1E001900D929E
:101C30008A95E1F70E94540CF7CE86E0F801AFEBED
:101C4000B1E001900D928A95E1F7EECE4D875E8767
:101C50008D859E850E94100C81116FCF8091C401EB
:101C600081608093C401C8010E94AF0BDDCE7A2D44
:101C7000B98AA88A6E2D89890E94140C86E0F60123
:101C800011928A95E9F7D6CFEE2009F465CF4D87FA
:101C90005E878D859E850E94100CF82E882309F49E
:101CA0005BCF86E0F801AFEBB1E001900D928A9531
:101CB000E1F78FEB91E00E9471080E94620CBACFAD
:101CC00081E08E25CBCE1F93CF93DF93CDB7DEB7C8
:101CD0002C970FB6F894DEBF0FBECDBF4F83588749
:101CE00069877A878B879C87CE0107960E94B80CFC
:101CF000882369F08A859B85892B39F04F81588527
:101D0000842F85238F3F09F071C016E05FC086E005
:101D1000FE013796DE01119601900D928A95E1F74A
:101D20008A859B85892B89F38F81988589238F3FAD
:101D300061F320918E0130E0C901019687709927E7
:101D400040918D014817190671F40E94ED0B109215
:101D50008E0110928D0186E0EFEBF1E0DF011D9224
:101D60008A95E9F7D2CF96E0929FD001939FB00D6C
:101D70001124A157BE4FFE01319601900D929A9504
:101D8000E1F780938E010E94330CBFCF819FC00189
:101D9000112481579E4F0E94B80C8823E9F0E091EE
:101DA0008D011E9FF0011124E157FE4F40815181AA
:101DB00062817381848195810E94230C80918D01C1
:101DC00090E001968770992780938D0180918D0115
:101DD00090918E018913DACF2C960FB6F894DEBF5E
:101DE0000FBECDBFDF91CF911F91089569857A8590
:101DF0008B859C850E94230C88CFEF92FF920F93D6
:101E00001F93CF93DF938C01892B81F0F12CEE246B
:101E1000E394E8012196F8018491843770F48430CA
:101E200008F05FC08130B1F08230A1F1DF91CF9135
:101E30001F910F91FF90EF900895853709F44CC0E2
:101E400008F43DC09CE7980F903780F78F770E9489
:101E5000080949C00E5F1F4FFE01849190E2980F60
:101E6000983060F48770FE2D01C0FF0F8A95EAF765
:101E70008F2F0E9490110E94B91102C00E94760813
:101E80008F2D815030F2EFE9FFE03197F1F700C07C
:101E90000000F7CF0E5F1F4FFE01849190E2980F74
:101EA000983050F48770FE2D01C0FF0F8A95EAF735
:101EB0008F2F0E949611DFCF0E940809E1CF0E5F9D
:101EC0001F4FFE01C491C150D8F28FE99FE00197E6
:101ED000F1F700C00000F7CF0E5F1F4FFE01F49036
:101EE000CFCF0E9476088E01CBCF08950C94750F4A
:101EF0000E94760F6093CE017093CF018093D00142
:101F00009093D1010C94D70B08950C94780F0F93F4
:101F10001F930091CE011091CF012091D0013091FB
:101F2000D101602B712B822B932B1F910F910C945D
:101F3000780F0F931F930091CE011091CF01209144
:101F4000D0013091D10160237123822393231F910B
:101F50000F910C94780F0F931F930091CE01109165
:101F6000CF012091D0013091D101602771278227C4
:101F700093271F910F910C94780F0C94750F0C946C
:101F8000BD0F0E94BF0F6093CA017093CB01809375
:101F9000CC019093CD010C94D70B60E070E0CB01A5
:101FA0000C94C10F0F931F9341E050E060E070E08C
:101FB0008A019B0104C0000F111F221F331F8A9545
:101FC000D2F7C901B8011F910F910C94C10F0F9363
:101FD0001F9341E050E060E070E004C0440F551FE3
:101FE000661F771F8A95D2F78091CA019091CB0125
:101FF000A091CC01B091CD018A019B01082B192B36
:102000002A2B3B2BC901B8011F910F910C94C10FD2
:102010000F931F9341E050E060E070E004C0440F74
:10202000551F661F771F8A95D2F7CB01BA016095BD
:102030007095809590950091CA011091CB012091E7
:10204000CC013091CD0160237123822393231F9112
:102050000F910C94C10F0F931F9341E050E060E08B
:1020600070E004C0440F551F661F771F8A95D2F792
:102070008091CA019091CB01A091CC01B091CD018A
:102080008A019B01082719272A273B27C901B80184
:102090001F910F910C94C10F0F931F930091CA01D0
:1020A0001091CB012091CC013091CD01602B712B8F
:1020B000822B932B1F910F910C94C10F0F931F93A1
:1020C0000091CA011091CB012091CC013091CD013A
:1020D00060237123822393231F910F910C94C10FCE
:1020E0000F931F930091CA011091CB012091CC0155
:1020F0003091CD0160277127822793271F910F917F
:102100000C94C10F0895E92FEE0F9E0F890F982FA1
:10211000977041E001C0440F9A95EAF7869586953D
:10212000869595E0899FF0011124EB53FE4F30E036
:1021300020E070E05191DF011197CB01022E02C027
:10214000969587950A94E2F7817081958527842377
:1021500085278C932F5F3F4F2530310559F7089520
:10216000E92FEE0F9E0F890F982F97708695869511
:10217000869525E0829FF0011124EB53FE4F50E03D
:1021800040E080E0219130E0092E02C0369527958D
:102190000A94E2F721703327042E01C0220F0A941B
:1021A000EAF7822B4F5F5F4F4530510559F708958D
:1021B000BF92CF92DF92EF92FF920F931F93CF9334
:1021C000DF938C01C090CA01D090CB01E090CC018C
:1021D000F090CD018091CE019091CF01A091D001DE
:1021E000B091D101C82AD92AEA2AFB2ACFE1D0E04E
:1021F000BC2ED701C6010C2E04C0B695A7959795A5
:1022000087950A94D2F780FD0EC0219788F7B12CEC
:102210008B2DDF91CF911F910F91FF90EF90DF9069
:10222000CF90BF900895B8018C2F0E94350201977E
:1022300061F3EECFCF93DF93EC010E94D810BE0183
:10224000DF91CF910C9435021F93CF93DF93EB0175
:1022500090918C01992331F0CB01DF91CF911F91A7
:102260000C941A11882379F0CB010E94D810182FF2
:10227000682FCE010E948310BE01812FDF91CF9184
:102280001F910C943502CB010E94B010182FF4CF8F
:10229000682F80910001909101010C946513682FC3
:1022A00080910001909101010C94701380910001C4
:1022B000909101010C947B138091D20185958595B5
:1022C000859508958091D201877008959091D201EB
:1022D000977081E009F480E008958091F6010895F7
:1022E0009091F601892B8093F60108958095909145
:1022F000F60198239093F60108951092F60108953F
:102300009091F501892B8093F50108958095909126
:10231000F50198239093F50108951092F501089521
:102320009091F401892B8093F40108958095909108
:10233000F40198239093F40108951092F401089504
:102340008091D301089508950C94A3119091D30125
:10235000981721F08093D3010C94A41108958091D3
:10236000D301882329F01092D30180E00C94A411AA
:102370000895E0910001F09101018091F6018083C0
:10238000E0910001F091010180819091F501892B8C
:102390008083E0910001F091010180819091F4012E
:1023A000892B80839091D301992381F0E0910001E2
:1023B000F09101018081892B8083809100019091AF
:1023C00001010E94D11281110E94AF118091000180
:1023D000909101010C94310708950C94EC1198E050
:1023E000899F90011124622B6093D2010E94E70F14
:1023F0008091D2018595859585950C94ED1110926B
:10240000D20180E00C94ED119091D2018095892346
:102410008093D201282F277071F4282F082E000CEA
:10242000330B9217130639F08595859585950E9493
:1024300008100C94FF11089590E080E00E946F1F37
:1024400021E08C3E9E4F09F020E0822F089582E02B
:1024500090E00C94671F682F82E090E00C94751F49
:1024600083E090E00C94671F682F83E090E00C9469
:10247000751FCF9384E090E00E94671FC82F81E210
:1024800090E00E94671F982F8C2FCF910895CF93D3
:10249000C92F682F84E090E00E94751F6C2F81E2A5
:1024A00090E0CF910C94751FAB01BC018FE090E0E0
:1024B0000C94871FAB01BC0183E190E00C94871F53
:1024C00060E070E0CB010C945A1260E070E0CB0148
:1024D0000E9454120C9460126CEE7EEF90E080E04B
:1024E0000E94931F60E082E090E00E94751F60E010
:1024F00083E090E00E94751F1092CE011092CF01F0
:102500001092D0011092D10160E084E090E00E942E
:10251000751F60E081E290E00E94751F60E085E039
:1025200090E00E94751F60E086E090E00E94751FB9
:102530006FEF87E090E00E94751F40E050E0BA0125
:1025400088E090E00E94871F60E08DE090E00E94AC
:10255000751F40E050E0BA0188E190E00E94871FBB
:1025600060E087E190E00E94751F40E050E0BA0112
:102570008CE190E00E94871F60E080E290E00E9482
:10258000751F40E050E0BA0188E190E00E94871F8B
:102590000C9465120C946C12682F8EE090E00C94F1
:1025A000751FFC01329680911401882321F08091DF
:1025B00030029EE187FF96E080E0915008F4089594
:1025C00021912223D1F38F5FF8CF662301F120916F
:1025D00014012223F1F02091300227FF1AC0462F68
:1025E0004695469546954E3190F4677021E030E06F
:1025F00002C0220F331F6A95E2F7840F911DFC0180
:10260000828190E02823392381E0232B69F480E044
:102610000895FC01329608962191261721F0E817BB
:10262000F907D1F7F4CF81E008959C01FC013296BF
:102630009FEF80E04191461751F09F3F19F44111FF
:1026400001C0982F8F5F8630A9F79F3F09F4089546
:10265000290F311D97FD3A95F90162830895FC0118
:10266000329608962191261303C0DF0111971C9220
:10267000E817F907B9F70895E62FE695E695E69588
:10268000EE3168F4E80FF92FF11D677021E030E0BA
:1026900001C0220F6A95EAF78281822B8283089516
:1026A000E62FE695E695E695EE3170F4E80FF92F02
:1026B000F11D677021E030E001C0220F6A95EAF752
:1026C00020958281282322830895209114012223BA
:1026D00029F02091300227FD0C943C130C94151323
:1026E00020911401222329F02091300227FD0C941F
:1026F00050130C942F13FC013296809114018823FF
:1027000051F08091300287FF06C08EE1DF011D92FB
:102710008A95E9F7089586E0F9CF089508950C9415
:102720008E130E948F1380913602843049F11092EB
:10273000F80188E190E020E40FB6F894A895809322
:1027400060000FBE2093600080E00E940D020E9496
:102750008F1383B7817F846083BF83B7816083BF1A
:102760007894889583B78E7F83BF0FB6F894A89529
:1027700080916000886180936000109260000FBEBD
:10278000089508950E948D130E9469040E94C11348
:1027900080E00E942A0491E0811107C081E00E943C
:1027A0002A0491E0811101C090E0892F08950895D5
:1027B0000C94D7130E94ED0B0E9425070E940D0276
:1027C0000C94D8131F921FB61F9211248F939F93BE
:1027D000AF93BF938091F801811113C080912C02B7
:1027E00090912D02A0912E02B0912F024196A11D31
:1027F000B11D80932C0290932D02A0932E02B093D2
:102800002F02BF91AF919F918F911F901FBE1F907C
:10281000189582E084BD93E095BD9AEF97BD8093B3
:102820006E0008952FB7F89480912C0290912D029C
:10283000A0912E02B0912F022FBF08959C014FB797
:10284000F89480912C0290912D02A0912E02B091CB
:102850002F024FBF821B930B089578941F921FB6CF
:102860001F9211248F939F93AF93BF9380912C025B
:1028700090912D02A0912E02B0912F020196A11DE0
:10288000B11D80932C0290932D02A0932E02B09341
:102890002F02BF91AF919F918F911F901FBE1F90EC
:1028A000189581E08093E00080E28093D800109238
:1028B000C9008FE19EE40197F1F700C0000087E0B6
:1028C00090EBDC0180933F0290934002A093410281
:1028D000B093420288E19CE00FB6F894A8958093EB
:1028E00060000FBE90936000FFCFCF92DF92EF9217
:1028F000FF921F93CF93DF9310E0E82EF12C812FEE
:102900000E942A04D0E0C0E0C82ED12CC6010C2EB3
:1029100002C0959587950A94E2F780FD11C0219633
:10292000C330D10599F7113049F480E0DF91CF91A0
:102930001F91FF90EF90DF90CF90089511E0DFCFCF
:102940006C2F712F80E00E941902E816F90639F702
:1029500081E0ECCFCF93C82F8CE20E9475148823BE
:1029600021F08C2FCF910C94751480E0CF910895B5
:10297000CF930E941C12811102C00E94CA12C5E6A8
:1029800008C00E9469048FE39CE90197F1F700C039
:102990000000C150B1F789E20E94AA1481110BC155
:1029A0008AE20E94AA1481110E94CA1285E00E9444
:1029B000AA1481110E9451140E9427128093F701DA
:1029C00087E00E94AA14882371F08BE10E94AA1468
:1029D000882309F4CDC09091F701892F8D7F91FF55
:1029E00082608093F7018091F7010E942B120E9470
:1029F0003912909331028093300280EE0E94AA1423
:102A0000882341F090913002892F8E7F90FF816062
:102A10008093300289E30E94AA14882341F09091A8
:102A20003002892F8D7F91FF82608093300282EE89
:102A30000E94AA14882341F090913002892F8B7F45
:102A400092FF84608093300286EE0E94AA1488234D
:102A500041F090913002892F877F93FF88608093A7
:102A6000300283EE0E94AA14882341F09091300234
:102A7000892F8F7E94FF80618093300285E30E94CE
:102A8000AA14882341F090913002892F8F7D95FF01
:102A900080628093300281E30E94AA14882341F06F
:102AA00090913002892F8F7B96FF80648093300253
:102AB00081E10E94AA14882341F090913002892F6D
:102AC00097FB87F980588093300280913002909173
:102AD00031020E94471287E20E94AA14C82F8EE199
:102AE0000E94AA148111C2608FE10E94AA14811170
:102AF000C46080E20E94AA148111C86081E20E9431
:102B0000AA148111C06182E20E94AA148111C062DC
:102B100083E20E94AA148111C06484E20E94AA1474
:102B2000882309F442C0C0688C2F0E9434126C2F95
:102B300070E090E080E00E94850F6091CA01709182
:102B4000CB018091CC019091CD010E94BF0F8FE00D
:102B50000E94AA14882319F081E00E94CC1285E11A
:102B60000E94AA14882339F180E0CF910C94CC12F2
:102B70008EE00E94AA14882339F09091F701892FE2
:102B80008B7F92FF84602DCF80E10E94AA149091E8
:102B9000F701882329F0892F877F93FF886021CF51
:102BA000892F8E7F90FF81601CCFC111BDCF0E9405
:102BB0003012682FBDCFCF9108958091FF0180FF23
:102BC00012C06091070185E0689FB00111247595DE
:102BD00067957595679560387105A8F5611571055C
:102BE000A1F1862F089581FF09C06091070185E05A
:102BF000689FB001112475956795EDCF609107012D
:102C000082FD0AC08091FE018823D1F090910601D7
:102C100060910701891728F085E0689FB0011124B1
:102C2000DACF869FB001112485E0869F9001879FAF
:102C3000300D1124692F70E0C9010E94391FCBCFDC
:102C400065E070E0CECF8FE7089581E00895809130
:102C5000FF0180FF0CC06091030170E075956795DE
:102C6000759567956115710549F1862F089581FF66
:102C700006C06091030170E075956795F3CF609190
:102C8000030182FD0BC09091FD019923A1F0609199
:102C9000020180910301961738F0682F70E06038C8
:102CA000710500F38FE70895899FC001112470E03A
:102CB0000E94391FF4CF61E070E0D7CF81E0089522
:102CC000803F31F40E94DD158195809303020895C1
:102CD000813F19F40E94DD15F8CF823F31F40E9444
:102CE000DD158195809302020895833F19F40E94B7
:102CF000DD15F8CF893F29F40E942716809304023E
:102D000008958A3F21F40E9427168195F7CF8B3FC3
:102D100031F40E94271681958093050208958C3F17
:102D200019F40E942716F8CF843F31F480910102F4
:102D30008160809301020895853F21F48091010212
:102D40008260F7CF863F21F4809101028460F1CF49
:102D5000873F21F4809101028860EBCF883F21F406
:102D6000809101028061E5CF8D3F31F48091FF01B8
:102D700081608093FF0108958E3F21F48091FF01CF
:102D80008260F7CF8F3FB9F78091FF018460F1CF68
:102D900090910202803F59F48091030287FF0DC099
:102DA0001092030291110BC01092FE0108C0813FE6
:102DB00081F48091030218169CF3992381F080918D
:102DC000040290910502892B09F064C01092FD0164
:102DD0000895823F49F497FFF0CF1092020280914C
:102DE00003028111ECCFE0CF833F19F41916ACF345
:102DF000E4CF20910402893F29F41216F4F61092D0
:102E00000402DBCF8A3F19F427FFD7CFF8CF2091F8
:102E100005028B3F29F427FFD0CF10920502CDCFBA
:102E20008C3F19F41216CCF3C8CF843F31F4809153
:102E300001028E7F80930102C0CF853F21F48091F3
:102E400001028D7FF7CF863F21F4809101028B7FB5
:102E5000F1CF873F21F480910102877FEBCF883F3C
:102E600021F4809101028F7EE5CF8D3F31F4809176
:102E7000FF018E7F8093FF01A0CF8E3F21F48091D0
:102E8000FF018D7FF7CF8F3F09F097CF8091FF0132
:102E90008B7FF0CF08950E9412149C019091020242
:102EA00080910302982B21F03093FC012093FB01C9
:102EB0009091040280910502982B21F03093FA0141
:102EC0002093F90180E092E00C944B07EF92FF927F
:102ED0000F931F93CF93DF9300D000D000D0CDB7D6
:102EE000DEB786E0E0E0F2E0DE01119601900D929F
:102EF0008A95E1F7E0900202F0900302009104024B
:102F00001091050210920202109203021092040224
:102F1000109205028E2D8F2991F08091FB019091E6
:102F2000FC010E941E14AC019091FE01992309F44A
:102F30003FC0809108018417150608F447C0802F10
:102F4000812B91F08091F9019091FA010E941E1459
:102F5000AC019091FD01992309F477C0809104019F
:102F60008417150608F47FC0809102029091030235
:102F7000892B90910402892B90910502892B11F0E5
:102F80000E944B1786E0FE013196A0E0B2E001906E
:102F90000D928A95E1F726960FB6F894DEBF0FBE24
:102FA000CDBFDF91CF911F910F91FF90EF900895CA
:102FB000209109018AE0289F9001112424173507E8
:102FC00008F0BDCF9F5F9093FE0102C09F3FD1F7F5
:102FD000EE2059F00E94DD159FEF1E140CF491E0D5
:102FE000899F802D112480930202FF2059F00E94B6
:102FF000DD159FEF1F140CF491E0899F802D1124A3
:103000008093030230910202332309F498CF209178
:103010000302222309F493CF45EB3403C0011124AA
:10302000992359F09093020245EB24039001112457
:10303000332339F03093030282CF81E08093020280
:10304000F3CF81E0809303027ACF209105018AE0DB
:10305000289F900111242417350708F085CF9F5F22
:103060009093FD0102C09F3FD1F7002359F00E94C9
:1030700027169FEF10160CF491E0899F802D1124E4
:1030800080930402112359F00E9427169FEF111616
:103090000CF491E0899F802D1124809305023091DA
:1030A0000402332309F460CF20910502222309F49E
:1030B0005BCF45EB3403C0011124992359F0909361
:1030C000040245EB240390011124332339F030939B
:1030D00005024ACF81E080930402F3CF81E0809320
:1030E000050242CF86E0E0E0F2E0DF011D928A9522
:1030F000E9F71092FE011092FD011092FF01089570
:10310000809126020895CF93DF9300D00F92CDB720
:10311000DEB790913602943019F589837B836A83F8
:1031200082E08093E9008FEF9091E800815095FD57
:1031300006C095ED9A95F1F700008111F5CF8091C9
:10314000E80085FF0DC050E040E063E070E0CE0194
:1031500001960E94A81A8091E8008E778093E8007B
:103160000F900F900F90DF91CF910895BC0184E0F4
:103170000C948318BC0183E00C9483189C0182E0BA
:103180008093E9009FEF8091E800915085FD06C093
:1031900085ED8A95F1F700009111F5CF8091E80057
:1031A00085FF0CC050E040E066E070E0C9010E947D
:1031B000A81A8091E8008E778093E8000895CF9355
:1031C000DF93EC01809114018823B1F180913002EA
:1031D00087FF32C060E282E08093E9008FEF909138
:1031E000E800815095FD06C095ED9A95F1F7000035
:1031F0008111F5CF8091E80085FF1BC080911401FB
:1032000070E050E040E0811104C050E040E068E030
:1032100070E0CE010E94A81A8091E8008E7780931A
:10322000E80080E2FE01A6E0B2E001900D928A95EE
:10323000E1F7DF91CF91089568E081E0CDCF8091F3
:103240003502811109C00E94381C0E94951C809192
:10325000E20084608093E2000895109235020895A0
:10326000089508950C94DA1342E061EC81E00E9425
:10327000B41B42E261EC82E00C94B41B80913802F2
:10328000833009F45FC030F48130C1F1823009F439
:103290009BC008958A3009F487C08B3009F46DC053
:1032A000893009F04EC080913702813209F049C05F
:1032B00080913B0290913C02029708F042C08091BD
:1032C000E800877F8093E8008091E80082FF35C0A6
:1032D0009091F3008091F200029729F48091F1001F
:1032E0008B7F813021F48091F100809326028091C0
:1032F000E8008B778093E8000C94E81B80913702FC
:10330000813AF9F48091E800877F8093E80080910A
:103310003B0290913C02892B61F460E286E092E0EE
:1033200070E00E94F71A8091E8008B778093E800A4
:10333000089560E090E080E0F3CF80913602811143
:10334000C3CF089580913702813AD9F780913B022B
:1033500090913C02892BA9F78091E800877F8093A8
:10336000E8008091E80080FFFCCF809114018093F9
:10337000F1008091E8008E77BDCF809137028132D5
:1033800001F780913B0290913C02892BD1F680910C
:10339000E800877F8093E8000E94E81B8091390253
:1033A000809314010C94ED0B80913702813249F621
:1033B0008091E800877F8093E8000E94E81B80915D
:1033C0003A0280932702089580913702813A09F0EA
:1033D000B8CF8091E800877F8093E8008091E80073
:1033E00080FFFCCF80912702C2CF84B7877F84BF44
:1033F0000FB6F894A8958091600088618093600072
:10340000109260000FBE80E890E00FB6F8948093B1
:103410006100909361000FBE0E9493070E94381CC8
:103420000E94951C8091E20084608093E200789471
:103430000E941E1F0E949F078AE091E00E942007C1
:1034400080913602853039F00E94A7070E949D07BF
:103450000E949E07F5CF0E94911380913402882329
:1034600079F30E94C213882359F30E94921AE8CF7D
:103470000C943A1A292F33272330310519F168F4B7
:103480002130310509F444C02230310509F445C02A
:1034900090E080E030E020E025C02132310549F1A4
:1034A00022323105A9F780E490E02DEE31E061157C
:1034B0007105C1F08CEB90E021E331E061307105E2
:1034C00089F0E6CF99278130910581F0009729F0A6
:1034D0000297F1F6E8EBF0E002C0E0EEF0E0849154
:1034E00090E09F01FA01318320830895E8ECF0E039
:1034F000F6CF89E090E026EF30E06115710591F399
:1035000089E090E02FE031E06130710559F3C0CFE0
:1035100082E190E02FE131E0E5CF8BE390E024EE13
:1035200030E0E0CF80E189BD82E189BD09B400FED1
:10353000FDCF8091D8008F7D8093D8008091E000EE
:1035400082608093E0008091E00081FDFCCF0895CF
:10355000AF92BF92CF92DF92FF920F931F93CF93C0
:10356000DF936C01EB018A010E94071CF82E811188
:1035700023C00115110539F0F80180819181C81B24
:10358000D90BC80ED91EB12CA12C2097A9F080917F
:10359000E80085FD22C08091E8008E778093E800E6
:1035A00001151105A1F0F80180819181A80EB91EC5
:1035B000B182A08285E0F82E8F2DDF91CF911F91EF
:1035C0000F91FF90DF90CF90BF90AF9008950E9431
:1035D000071C8823D1F2F82EEFCFF60181916F01FD
:1035E0008093F1002197FFEFAF1ABF0ACECFFC0105
:1035F00080913D0290913E0286179707A0F06115D9
:10360000710529F49091E8009E779093E80090E08E
:103610006115710551F4911108C08091E80082FF95
:1036200034C080E00895BC01F2CF80913602882337
:10363000C1F18530C1F18091E80083FD30C08091F7
:10364000E80082FDEACF8091E80080FFE1CF809121
:10365000F3002091F200382F6115710519F0283020
:10366000310558F091E02830310509F090E02091C3
:10367000E8002E772093E800CBCF81918093F10072
:10368000615071092F5F3F4FE7CF80913602882349
:1036900041F0853041F08091E80083FFBECF81E0AA
:1036A000089582E0089583E00895FC0180913D0231
:1036B00090913E0286179707A0F06115710529F4D5
:1036C0008091E8008E778093E80090E061157105A5
:1036D00051F4911108C08091E80082FF35C080E06C
:1036E0000895BC01F2CF809136028823C9F185305C
:1036F000C9F18091E80083FD31C08091E80082FD2E
:10370000EACF8091E80080FFE1CF8091F300209123
:10371000F200382F6115710519F02830310558F085
:1037200091E02830310509F090E08091E8008E7733
:103730008093E800CBCF84918093F1003196615063
:1037400071092F5F3F4FE6CF80913602882341F009
:10375000853041F08091E80083FFBDCF81E008957E
:1037600082E0089583E00895982F973028F08F70B5
:103770008093E90081E008959093E900242F762F4B
:1037800050E0981731F07091EC002091ED005091CD
:10379000F00021FD02C09F5FE8CF3091EB003E7F3B
:1037A0003093EB003091ED003D7F3093ED00309190
:1037B000EB0031603093EB007093EC002093ED0050
:1037C0005093F0002091EE0027FDE5CF80E00895B2
:1037D0008091370287FF13C08091E80082FF06C006
:1037E0008091E8008B778093E80004C080913602D6
:1037F0008111F2CF0895809136028823D9F3809108
:10380000E80080FFF8CF8091E8008E77ECCF209120
:10381000E4003091E50095E6A9012091EC00822FAB
:10382000817020FF06C08091E80080FF06C080E024
:1038300008952091E80022FD1AC080913602882365
:1038400089F0853089F08091EB0085FD0FC02091D3
:10385000E4003091E50042175307F9F29150E1F688
:1038600084E0089582E0089583E0089581E008955A
:103870000E94A61C0E94AE1CE0EEF0E080818160F8
:103880008083E8EDF0E080818F77808319BCA7ED1D
:10389000B0E08C918E7F8C9380818F7E808310929C
:1038A000350208950F931F93CF93DF930E94A61CB8
:1038B0000E94AE1CC8EDD0E088818F778883888114
:1038C0008068888388818F7D888319BC1092360236
:1038D00010923202109234021092330200EE10E085
:1038E000F80180818B7F808388818160888342E0BA
:1038F00060E080E00E94B41BE1EEF0E080818E7F0A
:103900008083E2EEF0E08081816080838081886046
:103910008083F80180818E7F8083888180618883A5
:10392000DF91CF911F910F910895E8EDF0E0808134
:103930008F7E8083E7EDF0E080818160808384E08A
:1039400082BF81E0809335020C94521CE8EDF0E0D8
:1039500080818E7F80831092E20008951092DA00B9
:103960001092E10008951F920F920FB60F9211244A
:103970002F933F934F935F936F937F938F939F9377
:10398000AF93BF93EF93FF938091E10082FF0BC051
:103990008091E20082FF07C08091E1008B7F8093DD
:1039A000E1000E941D1F8091DA0080FF19C0809104
:1039B000D80080FF15C08091DA008E7F8093DA00F6
:1039C0008091D90080FF96C080E189BD82E189BDE8
:1039D00009B400FEFDCF81E0809336020E941F19DA
:1039E0008091E10080FF19C08091E20080FF15C046
:1039F0008091E2008E7F8093E2008091E2008061FE
:103A00008093E2008091D80080628093D80019BC36
:103A100085E0809336020E9431198091E10084FF95
:103A20002BC08091E20084FF27C080E189BD82E144
:103A300089BD89B5982F917080FFFBCF8091D80008
:103A40008F7D8093D8008091E1008F7E8093E1008C
:103A50008091E2008F7E8093E2008091E20081609D
:103A60008093E20080913202882309F449C084E007
:103A7000809336020E9432198091E10083FF29C0B1
:103A80008091E20083FF25C08091E100877F8093D1
:103A9000E10082E080933602109232028091E100D0
:103AA0008E7F8093E1008091E2008E7F8093E20020
:103AB0008091E20080618093E20042E060E080E07B
:103AC0000E94B41B8091F00088608093F0000E94F7
:103AD0003019FF91EF91BF91AF919F918F917F919D
:103AE0006F915F914F913F912F910F900FBE0F906B
:103AF0001F90189519BC109236020E942D1970CF94
:103B00008091E30087FD93E090933602B3CF1F923C
:103B10000F920FB60F9211242F933F934F935F9301
:103B20006F937F938F939F93AF93BF93CF93DF93C5
:103B3000EF93FF93D091E900DF708091EC00C82FE4
:103B4000C17080FDC0E81092E9008091F000877F8D
:103B50008093F00078940E94CB1D1092E900809130
:103B6000F00088608093F000CD2BCF70C093E90007
:103B7000FF91EF91DF91CF91BF91AF919F918F9185
:103B80007F916F915F914F913F912F910F900FBE59
:103B90000F901F9018951F93CF93DF93CDB7DEB78B
:103BA000AA970FB6F894DEBF0FBECDBF87E392E0B1
:103BB0002091F100FC012193CF01F2E08F339F07A8
:103BC000B9F70E943E198091E80083FF1EC18091E1
:103BD0003702909138029A3008F017C1E92FF0E0CF
:103BE000E753F04E0C944D1F803899F0823809F05D
:103BF0000CC180913B028F70873008F006C1809322
:103C0000E9008091EB0085FB882780F91092E9009C
:103C100006C080913302909134029111826090919C
:103C2000E800977F9093E8008093F1001092F100F4
:103C30008091E8008E77E5C0882309F4D3C08230F4
:103C400009F0E3C0809139028111D6C080913B0216
:103C50008F702FEF280F263008F0D7C08093E9002F
:103C60002091EB0020FFC8C0933031F48091EB002D
:103C700080628093EB00C0C09091EB0090619093C4
:103C8000EB0021E030E001C0220F8A95EAF7209393
:103C9000EA001092EA008091EB008860EACF81117F
:103CA000B4C0109139021F778091E3008078812B96
:103CB0008093E3008091E800877F8093E8000E9472
:103CC000E81B8091E80080FFFCCF8091E3008068D2
:103CD0008093E30082E0111183E08093360295C067
:103CE0008058823008F091C08091390290913A0258
:103CF0008C3D23E09207A1F583E08A838AE28983E1
:103D00004FB7F894DE01139620E03EE051E2E32F36
:103D1000F0E050935700E49120FF03C0E295EF706C
:103D20003F5FEF708E2F90E0EA30C0F0C7968D9322
:103D30009D932F5F243159F74FBF8091E800877F13
:103D40008093E8006AE270E0CE0101960E94F71AC3
:103D50008091E8008B778093E80057C0C096E7CF4A
:103D600060913B0270913C02AE014F5F5F4F0E9439
:103D7000381ABC01892B09F448C09091E800977F5C
:103D80009093E80089819A810E94551BE1CF803889
:103D9000E1F58091E800877F8093E800809132020E
:103DA0008093F10045CF811130C09091390292305B
:103DB00060F58091E800877F8093E800909332025D
:103DC0000E94E81B80913202882311F084E005C034
:103DD0008091E30087FDFACF81E0809336020E9454
:103DE000341913C080913902813079F481E0933025
:103DF00009F080E0809334021092E9008091E8009D
:103E0000877F8093E8000E94E81B8091E80083FF91
:103E10000AC08091E800877F8093E8008091EB00E2
:103E200080628093EB00AA960FB6F894DEBF0FBEB7
:103E3000CDBFDF91CF911F9108950895CF938091C9
:103E400036028823A1F0C091E900CF709091EC0078
:103E5000892F817090FD80E8C82B1092E900809135
:103E6000E80083FD0E94CB1DCF70C093E900CF9185
:103E7000089597FB072E16F4009407D077FD09D01C
:103E80000E94531F07FC05D03EF4909581959F4FEB
:103E90000895709561957F4F0895EE0FFF1F05906F
:103EA000F491E02D0994AA1BBB1B51E107C0AA1F86
:103EB000BB1FA617B70710F0A61BB70B881F991FCB
:103EC0005A95A9F780959095BC01CD010895F9996F
:103ED000FECF92BD81BDF89A992780B50895A8E1DB
:103EE000B0E042E050E00C949B1F262FF999FECFE2
:103EF00092BD81BDF89A019700B4021639F01FBA3D
:103F000020BD0FB6F894FA9AF99A0FBE0895039659
:103F1000272F0E94761F0E94751F252F0E94761F53
:103F2000242F0C94761F0196272F0E94761F0C9445
:103F3000751FDC01CB01FC01F999FECF06C0F2BD73
:103F4000E1BDF89A319600B40D9241505040B8F757
:103F50000895F894FFCFB609B6090E0A0E0A600A52
:103F60007C0AE309E309870A130B220B220B7E0B61
:103F7000E309E309870BFC0BFC0B050C050C070C94
:103F8000050C050C050CFC0BFC0B0C0C050C050CB6
:103F90000C0CF41D1C1E051F1C1E051F4F1E701E41
:063FA000051FC71ED31E21
:103FA600D4012808641E140A321E8018DF18BE18B1
:103FB600BA18B61801E200E900EA00B500B600B783
:103FC60000CD008301CC008A0192019401210223D5
:103FD6000224022502260227022A02B300B4006F39
:103FE60000700081828334C6976694E200E900EA95
:103FF60000B500B600B700CD008301CC008A01925F
:104006000194012102230224022502260227022A04
:0C40160002B300B4006F007000818283D0
:00000001FF
